{
  "_format": "hh-sol-artifact-1",
  "contractName": "Ballot",
  "sourceName": "contracts/Ballot.sol",
  "abi": [
    {
      "inputs": [
        {
          "components": [
            {
              "internalType": "uint256",
              "name": "id",
              "type": "uint256"
            },
            {
              "internalType": "string",
              "name": "firstName",
              "type": "string"
            },
            {
              "internalType": "string",
              "name": "lastName",
              "type": "string"
            },
            {
              "internalType": "string",
              "name": "party",
              "type": "string"
            },
            {
              "internalType": "uint256",
              "name": "age",
              "type": "uint256"
            },
            {
              "internalType": "string",
              "name": "partyPhoto",
              "type": "string"
            },
            {
              "internalType": "string",
              "name": "candidatePhoto",
              "type": "string"
            },
            {
              "internalType": "uint256",
              "name": "voteCount",
              "type": "uint256"
            }
          ],
          "internalType": "struct Ballot.Candidate[]",
          "name": "_initialCandidates",
          "type": "tuple[]"
        },
        {
          "internalType": "uint256",
          "name": "_campaignEndDate",
          "type": "uint256"
        }
      ],
      "stateMutability": "nonpayable",
      "type": "constructor"
    },
    {
      "anonymous": false,
      "inputs": [
        {
          "indexed": true,
          "internalType": "uint256",
          "name": "candidateId",
          "type": "uint256"
        },
        {
          "indexed": false,
          "internalType": "string",
          "name": "firstName",
          "type": "string"
        },
        {
          "indexed": false,
          "internalType": "string",
          "name": "lastName",
          "type": "string"
        }
      ],
      "name": "CandidateAdded",
      "type": "event"
    },
    {
      "anonymous": false,
      "inputs": [
        {
          "indexed": true,
          "internalType": "address",
          "name": "voter",
          "type": "address"
        }
      ],
      "name": "VoteCast",
      "type": "event"
    },
    {
      "anonymous": false,
      "inputs": [
        {
          "indexed": true,
          "internalType": "uint256",
          "name": "candidateId",
          "type": "uint256"
        },
        {
          "indexed": false,
          "internalType": "uint256",
          "name": "voteCount",
          "type": "uint256"
        }
      ],
      "name": "WinnerDeclared",
      "type": "event"
    },
    {
      "inputs": [],
      "name": "announceWinner",
      "outputs": [],
      "stateMutability": "nonpayable",
      "type": "function"
    },
    {
      "inputs": [],
      "name": "campaignEndDate",
      "outputs": [
        {
          "internalType": "uint256",
          "name": "",
          "type": "uint256"
        }
      ],
      "stateMutability": "view",
      "type": "function"
    },
    {
      "inputs": [],
      "name": "campaignStartDate",
      "outputs": [
        {
          "internalType": "uint256",
          "name": "",
          "type": "uint256"
        }
      ],
      "stateMutability": "view",
      "type": "function"
    },
    {
      "inputs": [
        {
          "internalType": "uint256",
          "name": "",
          "type": "uint256"
        }
      ],
      "name": "candidates",
      "outputs": [
        {
          "internalType": "uint256",
          "name": "id",
          "type": "uint256"
        },
        {
          "internalType": "string",
          "name": "firstName",
          "type": "string"
        },
        {
          "internalType": "string",
          "name": "lastName",
          "type": "string"
        },
        {
          "internalType": "string",
          "name": "party",
          "type": "string"
        },
        {
          "internalType": "uint256",
          "name": "age",
          "type": "uint256"
        },
        {
          "internalType": "string",
          "name": "partyPhoto",
          "type": "string"
        },
        {
          "internalType": "string",
          "name": "candidatePhoto",
          "type": "string"
        },
        {
          "internalType": "uint256",
          "name": "voteCount",
          "type": "uint256"
        }
      ],
      "stateMutability": "view",
      "type": "function"
    },
    {
      "inputs": [],
      "name": "contractOwner",
      "outputs": [
        {
          "internalType": "address",
          "name": "",
          "type": "address"
        }
      ],
      "stateMutability": "view",
      "type": "function"
    },
    {
      "inputs": [],
      "name": "declareWinnerId",
      "outputs": [
        {
          "internalType": "uint256",
          "name": "",
          "type": "uint256"
        }
      ],
      "stateMutability": "view",
      "type": "function"
    },
    {
      "inputs": [
        {
          "internalType": "uint256",
          "name": "candidateId",
          "type": "uint256"
        }
      ],
      "name": "getCandidateById",
      "outputs": [
        {
          "components": [
            {
              "internalType": "uint256",
              "name": "id",
              "type": "uint256"
            },
            {
              "internalType": "string",
              "name": "firstName",
              "type": "string"
            },
            {
              "internalType": "string",
              "name": "lastName",
              "type": "string"
            },
            {
              "internalType": "string",
              "name": "party",
              "type": "string"
            },
            {
              "internalType": "uint256",
              "name": "age",
              "type": "uint256"
            },
            {
              "internalType": "string",
              "name": "partyPhoto",
              "type": "string"
            },
            {
              "internalType": "string",
              "name": "candidatePhoto",
              "type": "string"
            },
            {
              "internalType": "uint256",
              "name": "voteCount",
              "type": "uint256"
            }
          ],
          "internalType": "struct Ballot.Candidate",
          "name": "",
          "type": "tuple"
        }
      ],
      "stateMutability": "view",
      "type": "function"
    },
    {
      "inputs": [],
      "name": "getCandidatesCount",
      "outputs": [
        {
          "internalType": "uint256",
          "name": "",
          "type": "uint256"
        }
      ],
      "stateMutability": "view",
      "type": "function"
    },
    {
      "inputs": [
        {
          "internalType": "uint256",
          "name": "_candidateId",
          "type": "uint256"
        }
      ],
      "name": "getVoteCount",
      "outputs": [
        {
          "internalType": "uint256",
          "name": "",
          "type": "uint256"
        }
      ],
      "stateMutability": "view",
      "type": "function"
    },
    {
      "inputs": [
        {
          "internalType": "address",
          "name": "",
          "type": "address"
        }
      ],
      "name": "hasVoted",
      "outputs": [
        {
          "internalType": "bool",
          "name": "",
          "type": "bool"
        }
      ],
      "stateMutability": "view",
      "type": "function"
    },
    {
      "inputs": [
        {
          "internalType": "uint256",
          "name": "_candidateId",
          "type": "uint256"
        }
      ],
      "name": "vote",
      "outputs": [],
      "stateMutability": "nonpayable",
      "type": "function"
    }
  ],
  "bytecode": "0x60806040523480156200001157600080fd5b50604051620020d2380380620020d2833981810160405281019062000037919062000684565b33600260006101000a81548173ffffffffffffffffffffffffffffffffffffffff021916908373ffffffffffffffffffffffffffffffffffffffff160217905550426003819055508060048190555060005b82518110156200022d576000838281518110620000ab57620000aa620006ea565b5b6020026020010151905060128160800151101562000100576040517f08c379a0000000000000000000000000000000000000000000000000000000008152600401620000f790620007a0565b60405180910390fd5b81816000018181525050600081908060018154018082558091505060019003906000526020600020906008020160009091909190915060008201518160000155602082015181600101908162000157919062000a03565b5060408201518160020190816200016f919062000a03565b50606082015181600301908162000187919062000a03565b506080820151816004015560a0820151816005019081620001a9919062000a03565b5060c0820151816006019081620001c1919062000a03565b5060e08201518160070155505080600001517fe64f834082661dd9ed89427b87edb6270fd6dad17198b0938f0edd058914c87f826020015183604001516040516200020e92919062000b2b565b60405180910390a2508080620002249062000b95565b91505062000089565b50505062000be2565b6000604051905090565b600080fd5b600080fd5b600080fd5b6000601f19601f8301169050919050565b7f4e487b7100000000000000000000000000000000000000000000000000000000600052604160045260246000fd5b6200029a826200024f565b810181811067ffffffffffffffff82111715620002bc57620002bb62000260565b5b80604052505050565b6000620002d162000236565b9050620002df82826200028f565b919050565b600067ffffffffffffffff82111562000302576200030162000260565b5b602082029050602081019050919050565b600080fd5b600080fd5b600080fd5b6000819050919050565b620003378162000322565b81146200034357600080fd5b50565b60008151905062000357816200032c565b92915050565b600080fd5b600067ffffffffffffffff82111562000380576200037f62000260565b5b6200038b826200024f565b9050602081019050919050565b60005b83811015620003b85780820151818401526020810190506200039b565b60008484015250505050565b6000620003db620003d58462000362565b620002c5565b905082815260208101848484011115620003fa57620003f96200035d565b5b6200040784828562000398565b509392505050565b600082601f8301126200042757620004266200024a565b5b815162000439848260208601620003c4565b91505092915050565b600061010082840312156200045c576200045b62000318565b5b62000469610100620002c5565b905060006200047b8482850162000346565b600083015250602082015167ffffffffffffffff811115620004a257620004a16200031d565b5b620004b0848285016200040f565b602083015250604082015167ffffffffffffffff811115620004d757620004d66200031d565b5b620004e5848285016200040f565b604083015250606082015167ffffffffffffffff8111156200050c576200050b6200031d565b5b6200051a848285016200040f565b6060830152506080620005308482850162000346565b60808301525060a082015167ffffffffffffffff8111156200055757620005566200031d565b5b62000565848285016200040f565b60a08301525060c082015167ffffffffffffffff8111156200058c576200058b6200031d565b5b6200059a848285016200040f565b60c08301525060e0620005b08482850162000346565b60e08301525092915050565b6000620005d3620005cd84620002e4565b620002c5565b90508083825260208201905060208402830185811115620005f957620005f862000313565b5b835b818110156200064757805167ffffffffffffffff8111156200062257620006216200024a565b5b80860162000631898262000442565b85526020850194505050602081019050620005fb565b5050509392505050565b600082601f8301126200066957620006686200024a565b5b81516200067b848260208601620005bc565b91505092915050565b600080604083850312156200069e576200069d62000240565b5b600083015167ffffffffffffffff811115620006bf57620006be62000245565b5b620006cd8582860162000651565b9250506020620006e08582860162000346565b9150509250929050565b7f4e487b7100000000000000000000000000000000000000000000000000000000600052603260045260246000fd5b600082825260208201905092915050565b7f43616e64696461746573206d757374206265206174206c65617374203138207960008201527f65617273206f6c64000000000000000000000000000000000000000000000000602082015250565b60006200078860288362000719565b915062000795826200072a565b604082019050919050565b60006020820190508181036000830152620007bb8162000779565b9050919050565b600081519050919050565b7f4e487b7100000000000000000000000000000000000000000000000000000000600052602260045260246000fd5b600060028204905060018216806200081557607f821691505b6020821081036200082b576200082a620007cd565b5b50919050565b60008190508160005260206000209050919050565b60006020601f8301049050919050565b600082821b905092915050565b600060088302620008957fffffffffffffffffffffffffffffffffffffffffffffffffffffffffffffffff8262000856565b620008a1868362000856565b95508019841693508086168417925050509392505050565b6000819050919050565b6000620008e4620008de620008d88462000322565b620008b9565b62000322565b9050919050565b6000819050919050565b6200090083620008c3565b620009186200090f82620008eb565b84845462000863565b825550505050565b600090565b6200092f62000920565b6200093c818484620008f5565b505050565b5b8181101562000964576200095860008262000925565b60018101905062000942565b5050565b601f821115620009b3576200097d8162000831565b620009888462000846565b8101602085101562000998578190505b620009b0620009a78562000846565b83018262000941565b50505b505050565b600082821c905092915050565b6000620009d860001984600802620009b8565b1980831691505092915050565b6000620009f38383620009c5565b9150826002028217905092915050565b62000a0e82620007c2565b67ffffffffffffffff81111562000a2a5762000a2962000260565b5b62000a368254620007fc565b62000a4382828562000968565b600060209050601f83116001811462000a7b576000841562000a66578287015190505b62000a728582620009e5565b86555062000ae2565b601f19841662000a8b8662000831565b60005b8281101562000ab55784890151825560018201915060208501945060208101905062000a8e565b8683101562000ad5578489015162000ad1601f891682620009c5565b8355505b6001600288020188555050505b505050505050565b600062000af782620007c2565b62000b03818562000719565b935062000b1581856020860162000398565b62000b20816200024f565b840191505092915050565b6000604082019050818103600083015262000b47818562000aea565b9050818103602083015262000b5d818462000aea565b90509392505050565b7f4e487b7100000000000000000000000000000000000000000000000000000000600052601160045260246000fd5b600062000ba28262000322565b91507fffffffffffffffffffffffffffffffffffffffffffffffffffffffffffffffff820362000bd75762000bd662000b66565b5b600182019050919050565b6114e08062000bf26000396000f3fe608060405234801561001057600080fd5b50600436106100a95760003560e01c806369a1277f1161007157806369a1277f1461015957806395f8502214610177578063b2c2f2e8146101a7578063bb9aa28f146101d7578063ce606ee0146101f5578063f57c954214610213576100a9565b80630121b93f146100ae57806309eef43e146100ca5780632d8cd096146100fa5780633477ee2e146101045780636779d1451461013b575b600080fd5b6100c860048036038101906100c39190610e14565b610231565b005b6100e460048036038101906100df9190610e9f565b610427565b6040516100f19190610ee7565b60405180910390f35b610102610447565b005b61011e60048036038101906101199190610e14565b610548565b604051610132989796959493929190610fa1565b60405180910390f35b610143610848565b6040516101509190611042565b60405180910390f35b61016161084e565b60405161016e9190611042565b60405180910390f35b610191600480360381019061018c9190610e14565b61096b565b60405161019e9190611182565b60405180910390f35b6101c160048036038101906101bc9190610e14565b610ce7565b6040516101ce9190611042565b60405180910390f35b6101df610d5c565b6040516101ec9190611042565b60405180910390f35b6101fd610d68565b60405161020a91906111b3565b60405180910390f35b61021b610d8e565b6040516102289190611042565b60405180910390f35b600160003373ffffffffffffffffffffffffffffffffffffffff1673ffffffffffffffffffffffffffffffffffffffff16815260200190815260200160002060009054906101000a900460ff16156102be576040517f08c379a00000000000000000000000000000000000000000000000000000000081526004016102b59061121a565b60405180910390fd5b600454421115610303576040517f08c379a00000000000000000000000000000000000000000000000000000000081526004016102fa90611286565b60405180910390fd5b600080549050811061034a576040517f08c379a0000000000000000000000000000000000000000000000000000000008152600401610341906112f2565b60405180910390fd5b600080828154811061035f5761035e611312565b5b9060005260206000209060080201905080600701600081548092919061038490611370565b919050555060018060003373ffffffffffffffffffffffffffffffffffffffff1673ffffffffffffffffffffffffffffffffffffffff16815260200190815260200160002060006101000a81548160ff0219169083151502179055503373ffffffffffffffffffffffffffffffffffffffff167fb87a61d78bd15221c59b983f6ef032fbde0631e66bfe18d1421fe5a73c16741d60405160405180910390a25050565b60016020528060005260406000206000915054906101000a900460ff1681565b600260009054906101000a900473ffffffffffffffffffffffffffffffffffffffff1673ffffffffffffffffffffffffffffffffffffffff163373ffffffffffffffffffffffffffffffffffffffff16146104d7576040517f08c379a00000000000000000000000000000000000000000000000000000000081526004016104ce9061142a565b60405180910390fd5b60006104e161084e565b905060008082815481106104f8576104f7611312565b5b9060005260206000209060080201600701549050817fd620cad007f711f526385f9e9ecc931ea58b1285ae09a10d659b1eb9e3f374658260405161053c9190611042565b60405180910390a25050565b6000818154811061055857600080fd5b906000526020600020906008020160009150905080600001549080600101805461058190611479565b80601f01602080910402602001604051908101604052809291908181526020018280546105ad90611479565b80156105fa5780601f106105cf576101008083540402835291602001916105fa565b820191906000526020600020905b8154815290600101906020018083116105dd57829003601f168201915b50505050509080600201805461060f90611479565b80601f016020809104026020016040519081016040528092919081815260200182805461063b90611479565b80156106885780601f1061065d57610100808354040283529160200191610688565b820191906000526020600020905b81548152906001019060200180831161066b57829003601f168201915b50505050509080600301805461069d90611479565b80601f01602080910402602001604051908101604052809291908181526020018280546106c990611479565b80156107165780601f106106eb57610100808354040283529160200191610716565b820191906000526020600020905b8154815290600101906020018083116106f957829003601f168201915b50505050509080600401549080600501805461073190611479565b80601f016020809104026020016040519081016040528092919081815260200182805461075d90611479565b80156107aa5780601f1061077f576101008083540402835291602001916107aa565b820191906000526020600020905b81548152906001019060200180831161078d57829003601f168201915b5050505050908060060180546107bf90611479565b80601f01602080910402602001604051908101604052809291908181526020018280546107eb90611479565b80156108385780601f1061080d57610100808354040283529160200191610838565b820191906000526020600020905b81548152906001019060200180831161081b57829003601f168201915b5050505050908060070154905088565b60045481565b6000600260009054906101000a900473ffffffffffffffffffffffffffffffffffffffff1673ffffffffffffffffffffffffffffffffffffffff163373ffffffffffffffffffffffffffffffffffffffff16146108e0576040517f08c379a00000000000000000000000000000000000000000000000000000000081526004016108d79061142a565b60405180910390fd5b60008080600090505b60008054905081101561096257826000828154811061090b5761090a611312565b5b906000526020600020906008020160070154111561094f576000818154811061093757610936611312565b5b90600052602060002090600802016007015492508091505b808061095a90611370565b9150506108e9565b50809250505090565b610973610d94565b60008054905082106109ba576040517f08c379a00000000000000000000000000000000000000000000000000000000081526004016109b1906112f2565b60405180910390fd5b600082815481106109ce576109cd611312565b5b90600052602060002090600802016040518061010001604052908160008201548152602001600182018054610a0290611479565b80601f0160208091040260200160405190810160405280929190818152602001828054610a2e90611479565b8015610a7b5780601f10610a5057610100808354040283529160200191610a7b565b820191906000526020600020905b815481529060010190602001808311610a5e57829003601f168201915b50505050508152602001600282018054610a9490611479565b80601f0160208091040260200160405190810160405280929190818152602001828054610ac090611479565b8015610b0d5780601f10610ae257610100808354040283529160200191610b0d565b820191906000526020600020905b815481529060010190602001808311610af057829003601f168201915b50505050508152602001600382018054610b2690611479565b80601f0160208091040260200160405190810160405280929190818152602001828054610b5290611479565b8015610b9f5780601f10610b7457610100808354040283529160200191610b9f565b820191906000526020600020905b815481529060010190602001808311610b8257829003601f168201915b5050505050815260200160048201548152602001600582018054610bc290611479565b80601f0160208091040260200160405190810160405280929190818152602001828054610bee90611479565b8015610c3b5780601f10610c1057610100808354040283529160200191610c3b565b820191906000526020600020905b815481529060010190602001808311610c1e57829003601f168201915b50505050508152602001600682018054610c5490611479565b80601f0160208091040260200160405190810160405280929190818152602001828054610c8090611479565b8015610ccd5780601f10610ca257610100808354040283529160200191610ccd565b820191906000526020600020905b815481529060010190602001808311610cb057829003601f168201915b505050505081526020016007820154815250509050919050565b600080805490508210610d2f576040517f08c379a0000000000000000000000000000000000000000000000000000000008152600401610d26906112f2565b60405180910390fd5b60008281548110610d4357610d42611312565b5b9060005260206000209060080201600701549050919050565b60008080549050905090565b600260009054906101000a900473ffffffffffffffffffffffffffffffffffffffff1681565b60035481565b60405180610100016040528060008152602001606081526020016060815260200160608152602001600081526020016060815260200160608152602001600081525090565b600080fd5b6000819050919050565b610df181610dde565b8114610dfc57600080fd5b50565b600081359050610e0e81610de8565b92915050565b600060208284031215610e2a57610e29610dd9565b5b6000610e3884828501610dff565b91505092915050565b600073ffffffffffffffffffffffffffffffffffffffff82169050919050565b6000610e6c82610e41565b9050919050565b610e7c81610e61565b8114610e8757600080fd5b50565b600081359050610e9981610e73565b92915050565b600060208284031215610eb557610eb4610dd9565b5b6000610ec384828501610e8a565b91505092915050565b60008115159050919050565b610ee181610ecc565b82525050565b6000602082019050610efc6000830184610ed8565b92915050565b610f0b81610dde565b82525050565b600081519050919050565b600082825260208201905092915050565b60005b83811015610f4b578082015181840152602081019050610f30565b60008484015250505050565b6000601f19601f8301169050919050565b6000610f7382610f11565b610f7d8185610f1c565b9350610f8d818560208601610f2d565b610f9681610f57565b840191505092915050565b600061010082019050610fb7600083018b610f02565b8181036020830152610fc9818a610f68565b90508181036040830152610fdd8189610f68565b90508181036060830152610ff18188610f68565b90506110006080830187610f02565b81810360a08301526110128186610f68565b905081810360c08301526110268185610f68565b905061103560e0830184610f02565b9998505050505050505050565b60006020820190506110576000830184610f02565b92915050565b61106681610dde565b82525050565b600082825260208201905092915050565b600061108882610f11565b611092818561106c565b93506110a2818560208601610f2d565b6110ab81610f57565b840191505092915050565b6000610100830160008301516110cf600086018261105d565b50602083015184820360208601526110e7828261107d565b91505060408301518482036040860152611101828261107d565b9150506060830151848203606086015261111b828261107d565b9150506080830151611130608086018261105d565b5060a083015184820360a0860152611148828261107d565b91505060c083015184820360c0860152611162828261107d565b91505060e083015161117760e086018261105d565b508091505092915050565b6000602082019050818103600083015261119c81846110b6565b905092915050565b6111ad81610e61565b82525050565b60006020820190506111c860008301846111a4565b92915050565b7f596f75206861766520616c726561647920766f74656400000000000000000000600082015250565b6000611204601683610f1c565b915061120f826111ce565b602082019050919050565b60006020820190508181036000830152611233816111f7565b9050919050565b7f566f74696e6720706572696f642068617320656e646564000000000000000000600082015250565b6000611270601783610f1c565b915061127b8261123a565b602082019050919050565b6000602082019050818103600083015261129f81611263565b9050919050565b7f496e76616c69642063616e646964617465204944000000000000000000000000600082015250565b60006112dc601483610f1c565b91506112e7826112a6565b602082019050919050565b6000602082019050818103600083015261130b816112cf565b9050919050565b7f4e487b7100000000000000000000000000000000000000000000000000000000600052603260045260246000fd5b7f4e487b7100000000000000000000000000000000000000000000000000000000600052601160045260246000fd5b600061137b82610dde565b91507fffffffffffffffffffffffffffffffffffffffffffffffffffffffffffffffff82036113ad576113ac611341565b5b600182019050919050565b7f4f6e6c7920636f6e7472616374206f776e65722063616e20706572666f726d2060008201527f7468697320616374696f6e000000000000000000000000000000000000000000602082015250565b6000611414602b83610f1c565b915061141f826113b8565b604082019050919050565b6000602082019050818103600083015261144381611407565b9050919050565b7f4e487b7100000000000000000000000000000000000000000000000000000000600052602260045260246000fd5b6000600282049050600182168061149157607f821691505b6020821081036114a4576114a361144a565b5b5091905056fea2646970667358221220a8c95cb8d25af33284d2fcee7d0c393266495f4cb1c19fd24293a6c23ea1afd964736f6c63430008120033",
  "linkReferences": {},
  "deployedLinkReferences": {}
}